:020000040800F2
:100000000000042095530008115200081552000802
:10001000195200081D52000821520008E55300083B
:1000200000000000000000000000000071E0000877
:10003000255200080000000001E0000899BC0008FB
:10004000E5530008E5530008E5530008E5530008B0
:10005000E5530008E5530008E5530008E5530008A0
:10006000E5530008E5530008E5530008E553000890
:10007000E5530008E5530008E5530008E553000880
:10008000E5530008E5530008E5530008E553000870
:10009000E5530008E5530008E5530008E553000860
:1000A000E5530008E5530008E5530008E553000850
:1000B000E55300082952000835520008E5530008AE
:1000C000E5530008E5530008E5530008E553000830
:1000D000E5530008E5530008E553000841520008C5
:1000E0004D520008E553000859520008E553000836
:1000F000E5530008E5530008E5530008E553000800
:10010000E55300086552000871520008E5530008E5
:10011000E5530008E5530008E5530008E5530008DF
:10012000E55300087D52000889520008E553000895
:1001300095520008E5530008E5530008E553000810
:10014000E5530008E5530008A1520008E5530008F4
:10015000E5530008E5530008E5530008E55300089F
:10016000E5530008AD520008E5530008E5530008C8
:10017000E553000800000000E553000800000000FF
:10018000B9520008E5530008E5530008E55300089C
:10019000E5530008E5530008E5530008E55300085F
:1001A000E5530008E5530008E5530008E55300084F
:1001B000E553000800000000C5520008E5530008A0
:1001C000E553000800000000E5530008E55300086F
:1001D000E5530008E5530008E5530008E55300081F
:1001E000E5530008E5530008E5530008E55300080F
:0401F000000000000B
:1002000010B5054C237833B9044B13B10448AFF350
:1002100000800123237010BD38020320000000007D
:10022000F4E5000808B5034B1BB103490348AFF3DD
:10023000008008BD000000003C020320F4E5000837
:10024000704700BF01F082BA2DE9F0412A4C2B4ED5
:10025000DFF8B0802A4F9AB04FF0FF33282269466A
:1002600020680CF043FB2828F6D1039804F09CFB8F
:100270000546002838D1029B9BB929460AAA009856
:1002800001F07AFA0CF02AFE0AA90246684601F04B
:1002900047FC0CF023FE0AA90246684601F044FA26
:1002A000DAE7B3F1005FF4D140F20373009D9D42A1
:1002B000EFD1082203994FF0000E91420B4628BF60
:1002C00013469C46019B41463846C6E905EEC6E901
:1002D0000053C6F808E0C6F80CC004F06DFB3946C0
:1002E000304601F0C9F8D4E74FF0FF332A462068C2
:1002F0000AA90CF0FBFABEE790270320680203204E
:100300005C0203209005FA0B2DE9F0411F4DDFF848
:1003100084801F4F9AB0002404EBC40101AEC4F1E5
:1003200024024FF0FF33286806EB81010CF0DEFA5F
:100330000444232CF0D9049804F036FB039B0646B2
:10034000B3F1005F00D0A0B9384606F0EFFA50B123
:1003500038460AAA01A906F0ADF9D8F80C300133E5
:10036000C8F80C30D7E74FF0FF3101200DF070F9DD
:10037000EAE700240AA9321B21444FF0FF33286822
:100380000CF0B4FA0444A642F4D8DDE78C2703202D
:10039000302603200000032000B583B001F0E6F909
:1003A00000F0A0FF03221849184805F023FC01F0D3
:1003B0002FFE00F007FE01F047FE0CF08FFD01F06C
:1003C000ADF9134809F0B0FE124809F075FE124C61
:1003D0000CF084FD019001F01DFE019801F03AFE41
:1003E000019800F007FE237813B9019801F018FB7B
:1003F000019801F09BF9019801F086FB0A2101A800
:100400000CF0CEFEE4E700BFA42803202027032041
:1004100068230320D0220320760003202DE9F04337
:100420004FF00008204C214EDFF88890204FA5B0F7
:1004300011E00DF0FBFC99F8003033B1099B23B1BA
:1004400064200BF0ABFC00F04DFF002302221946A4
:1004500038680DF073F94FF0FF3101200DF0F8F816
:100460000DF0D6FC204606F0B7FB054604A9204651
:1004700006F022FA6946204606F046FA5422314632
:100480000FA8B5600EF05EF8C4F86080169BB3F557
:10049000003FCED9B3689B02CBD5012386F820302C
:1004A000099300F0E3FFC4E7302603200000032097
:1004B000F01A03205802032000232DE9F04F85B0E5
:1004C0007D4E7E4FDFF8FC91DFF800B27C4DDFF807
:1004D00000A20DF10E088DF80B3012E028680CF028
:1004E0002DF9012808D94FF0FF330222286803A90B
:1004F0000CF0FCF9022846D04FF0FF3100200DF03F
:10050000A7F830680CF01AF90028E7D04FF0FF3355
:10051000012230680DF10B010CF0E8F90128DDD162
:1005200030680CF00BF90128D8D94FF0FF330222C4
:10053000306803A90CF0DAF90228CFD1BDF80C20FD
:10054000B2F5805FCAD2002A40F0A6809DF80B4029
:10055000002C53D10CF0C2FC5A4B5849BDF80C206A
:10056000CDF8008004F0DCF8BDF80E30002B7AD115
:100570000CF0B4FC534B5149BDF80C20CDF8008071
:1005800004F010FAAAE7BDF80C20B2F5805FB3D2F0
:100590006AB10024121B39194FF0FF3328680CF0A0
:1005A000A5F9BDF80C20204484B2A242F2D10CF08F
:1005B00095FC4B463946BDF80C20CDF8008004F080
:1005C00079FABDF80E30002B96D041464FF0FF333C
:1005D0000222DAF800000CF0BFF84946BDF80E2000
:1005E0004FF0FF33DAF800000CF0B6F800230222D7
:1005F0001946DBF800000DF0A1F87DE70CF06EFC69
:10060000304B2E49BDF80C20CDF8008004F0C8F91D
:10061000BDF80E30002BABD099F800207F2A09D10D
:10062000022BA5D999F80230A3F11102012A9FD912
:10063000312B9DD02448414604464FF0FF3302221F
:1006400000680CF089F8BDF80E204FF0FF331D490B
:1006500020680CF081F8002302221946DBF8000024
:100660000DF06CF884E7184841464FF0FF33022242
:1006700000680CF071F81448BDF80E204FF0FF33FD
:10068000104900680CF068F8234602222146DBF886
:1006900000000DF053F86BE70024121B4FF0FF33FE
:1006A000391930680CF022F9BDF80C2023189CB2DF
:1006B000A242F2D14AE700BF9C020320508F0120E2
:1006C00090020320507F012098020320300803206D
:1006D0008C0203202DE9F04F404F414E414DDFF891
:1006E0000CA185B007F11C0907F5805B07F1140820
:1006F00013E028680CF022F8012809D94FF0FF33E5
:10070000022228680DF106010CF0F0F8022843D00F
:100710004FF0FF3100200CF09BFF30680CF00EF81A
:100720000128E6D94FF0FF330222414630680CF031
:10073000DDF80228DDD1BA8AB2F5805FD9D26AB17C
:100740000024121B09EB04014FF0FF3330680CF05A
:10075000CDF8BA8A204484B2A242F2D10CF0BEFB9A
:100760000146214801F0DCFB0028C2D103E09BF8E0
:1007700023000BF013FB0CF0B1FB03F033FF012857
:10078000B7D030680BF0DAFF0128B2D89AF8003001
:10079000002BECD10A20ECE7BDF80620082AB7D8D8
:1007A00072B1002402A9121B21444FF0FF332868C4
:1007B0000CF09CF8BDF80620204484B2A242F1D18E
:1007C0000CF08CFBBDF8062002A904F02DF90128DD
:1007D0009ED00A200BF0E2FAF2E700BF54AF0120EE
:1007E000980203208C020320549F012076000320EE
:1007F00000F0B0BF00F0B2BF002000F0B3BF00BFF8
:100800000022024B02481A6009F08EBC54020320F9
:100810001C230320014B1868704700BF54020320BB
:1008200030B59FB0482200210CA80DF0FFFD002339
:100830004FF40070CDE90233CDE90433CDE907333D
:10084000CDE90933019306930B9307F073FE08B1CA
:1008500072B6FEE7012302221693119319931792A1
:1008600010231D9207229FED1E7BCDE91A3203242F
:10087000042312900CA81C938DED0C7B189408F0A7
:1008800093F8034608B172B6FEE70F22214601A88D
:10089000CDE9033305930294019207F033FF034639
:1008A00008B172B6FEE7104A4FF00055916D4BF655
:1008B0007F3441F080719165926D069302F08072F1
:1008C000009208932222202306A8CDE90A2300994A
:1008D0000795099408F0C6FF1FB030BDAFF3008044
:1008E00029000000000001000010024080B592B015
:1008F00072B64FF00062A54B9A60BFF34F8F62B69D
:10090000002504F071FDFFF78BFFCDE90C55CDE913
:100910000E559F4C1095E36C4FF4604143F0040377
:10092000E364E36C2A4603F004030593059BE36C40
:10093000984843F08003E364E36C012603F08003EE
:100940000693069BE36C082743F00103E364E36C22
:1009500003F001030793079BE36C43F00203E36496
:10096000E36C03F002030893089B06F0EFFA2A46B3
:1009700040F20111884806F0E9FA2A4641F2E40102
:10098000864806F0E3FA4FF4604382480CA9CDE9AB
:100990000C360E950F9506F021F940F201137E48B2
:1009A0000CA9CDE90C36CDE90E5506F017F941F248
:1009B000E4037A480CA9CDE90C36CDE90E5506F0D2
:1009C0000DF977480CA9CDE90C750E9506F006F9DE
:1009D000A36C052143F00403A364A36C2A4603F02F
:1009E00004030293029BA36C1D203343A364A36CF6
:1009F00033400393039BA36C43F00203A364A36CF3
:100A000003F002030493049B05F0EAF91D2005F0AE
:100A100023FA2A4605211E2005F0E2F91E2005F0E2
:100A20001BFA2A460521502005F0DAF9502005F07E
:100A300013FA284606F008FE08B172B6FEE706F083
:100A400017FE034640B957484360574B036008F010
:100A500031FF18B172B6FEE772B6FEE710224FF40E
:100A60004071524B04251870514B99609A619A62FB
:100A70003C211322C3E907120F22DA624D4A586063
:100A8000D8609874D8631846C3E90D661E825E610B
:100A90005E621A601D6305F063FC0346E8B9072235
:100AA0004FF4827C4FF400714FF4E0644248C0E997
:100AB0000433C0E90833C0E90A32836003633F4B63
:100AC000C76103604763C0F804C0C460816109F076
:100AD0001DF9034618B172B6FEE772B6FEE7CDE91E
:100AE0000C00CDE90E00CDE91000CDE90A00099017
:100AF0004FF480704FF4301703214FF48052304C84
:100B0000C4E9023384F82030A362E36284F8383009
:100B10002C4B20832046266184F830606561676035
:100B2000E1616263236004F083FC08B172B6FEE702
:100B3000099009A9204605F0DBF808B172B6FEE776
:100B400006237F220D93204B0E9011900CA9204676
:100B500010950F920C9304F095FD08B172B6FEE764
:100B60000C231A4A20460CA90C920D9304F08AFD1E
:100B700008B172B6FEE71223154A20460CA90C9262
:100B80000D9304F07FFD28B372B6FEE700ED00E0A0
:100B9000001002400008024200000242000402422B
:100BA000001C02423425032000080C425802032096
:100BB0003026032000A40040D02403200038004049
:100BC0002027032000800242400020190002B025A7
:100BD0000004002A002301225148C0E90533838024
:100BE000504B0262036005F057F9034608B172B634
:100BF000FEE74D484D4AC37202604FF40273022271
:100C00008380C0F8072006F03DFD08B172B6FEE70C
:100C100041F63F75464C474ACDE90C00C4E9010056
:100C20000E90A06120462260E56009F091FC034629
:100C300008B172B6FEE720460CA90C930E9309F09A
:100C4000B9FC034608B172B6FEE73B4CCDE90C3364
:100C50000E93A360A36142F20F73384A2046C4E9A1
:100C60000023E56009F074FC034608B172B6FEE7A4
:100C700020460CA90C930E9309F09CFC034608B186
:100C800072B6FEE74F254FF6FF742D482D4AC0E996
:100C900004338360836102604560C46009F058FCDE
:100CA000034608B172B6FEE72748C0E90153C0E920
:100CB0000343C0E90533254B036009F049FC08B143
:100CC00072B6FEE74FF080414FF0FF32204CCDE985
:100CD0000C00CDE90E00CDE90900C4E901000B903C
:100CE0002061A06120462160E26009F031FC08B17A
:100CF00072B6FEE74FF4805320460CA90C9309F01E
:100D000051FA08B172B6FEE70023114809A9099308
:100D10000B9309F04FFC0446E0B172B6FEE700BF4A
:100D20009426032000300240A81F032000D4004076
:100D30001C230320001400406823032000100040FF
:100D4000D0220320004401408422032000480140B7
:100D5000B4230320574D02460121574B009546F21C
:100D600006000BF097FC0246544D554E01210096AB
:100D7000544B2A6046F2060022460BF08BFC0646D6
:100D8000514F524A009701211660514B22464FF4B1
:100D90007A600BF07FFC02464E4E4F4F01210097C8
:100DA0004E4B32604FF47A6022460BF073FC4C4B92
:100DB0004C4A01210092186022464B4B4FF4A04050
:100DC0000BF068FC494B4A4A012100921860224608
:100DD000484B4FF4A0400BF05DFC0246464F474B9A
:100DE000394647481A6001F0C5F90CF077F82A46F1
:100DF000444D454B2946009600F070FE434E444852
:100E0000DFF8808101F0F2F9424800F069FC3246D7
:100E10004146414800F04CFA0AF04CFF21463F4A57
:100E20003F480AF073FF3F4A214610603E4A3F4860
:100E30000AF06CFF3E4A214610603E4A3E480AF0E6
:100E400065FF21463D4AC8F800003D480AF05EFFB4
:100E5000034621463B4A3C483B600AF057FF0346A5
:100E600021463A4A3A4833600AF050FF0346214689
:100E7000384A39482B600AF049FF0546374B21466E
:100E8000374A38481D600AF041FF0546364B214677
:100E9000364A37481D600AF039FF0546354B214672
:100EA000354A36481D600AF031FF354B18600AF0AC
:100EB00013FFFEE754030320481F01209C02032078
:100EC0003003032040BF00200C03032098020320BE
:100ED000A0AF002090020320E802032000A0002021
:100EE0008C020320C402032000500020902703201E
:100EF000A002032000000020401603208C270320BE
:100F0000D0240320E00C032094020320901103203E
:100F100034250320942603203026032014EB0008F8
:100F200045020008A41F0320F0EA00084902000857
:100F3000A01F0320CCEA000809030008A8EA000863
:100F40009903000884EA00081D04000860EA00080C
:100F5000B90400083CEA0008D50600083008032060
:100F600018EA0008F107000880030320F4E90008EC
:100F7000F50700087C030320D0E90008F907000802
:100F800078030320F01A0320094A0368934206D02D
:100F9000084A93420AD0084A934205D07047074A4C
:100FA000136801331360704700F0C8BB04F02EBA19
:100FB00000140040002C01400010004054020320A7
:100FC00072B6FEE7024B0348DB8B037001F0F4B806
:100FD0005400032089270320054AD38B9BB211B10B
:100FE0000343D383704723EA0003D383704700BFD2
:100FF0005400032038B5124D0446A88B1149C0B2E5
:1010000000F036F9E88B1049C0B200F04DF940F617
:10101000B7330E4AE98B9C4211700D4B01D81978F9
:1010200031B101221A700948BDE8384001F0C4B856
:10103000FF2313700548BDE8384001F0BDB800BF7C
:101040005400032060010320E800032089270320C7
:10105000882703208446002310B50C4682B00DF18A
:10106000060002226146ADF8063003F0A5FC012C13
:101070008CBFBDF806009DF8060040BA80B202B0F1
:1010800010BD00BF8446002310B50C4682B00DF1A0
:10109000060002226146ADF8063003F08DFC012CFB
:1010A0008CBFBDF806009DF8060040BA80B202B0C1
:1010B00010BD00BF8446002310B50C4682B00DF170
:1010C000060002226146ADF8063003F075FC012CE3
:1010D0008CBFBDF806009DF8060040BA80B202B091
:1010E00010BD00BF8446002310B50C4682B00DF140
:1010F000060002226146ADF8063003F05DFC012CCB
:101100008CBFBDF806009DF8060040BA80B202B060
:1011100010BD00BF8446002310B50C4682B00DF10F
:10112000060002226146ADF8063003F045FC012CB2
:101130008CBFBDF806009DF8060040BA80B202B030
:1011400010BD00BF8446002310B50C4682B00DF1DF
:10115000060002226146ADF8063003F02DFC012C9A
:101160008CBFBDF806009DF8060040BA80B202B000
:1011700010BD00BF8446002310B50C4682B00DF1AF
:10118000060002226146ADF8063003F015FC012C82
:101190008CBFBDF806009DF8060040BA80B202B0D0
:1011A00010BD00BF00787047002300B5012983B04F
:1011B000ADF8063003D8184603B05DF804FB0146CD
:1011C00002220DF1060003F0F7FB9DF8060003B0C4
:1011D0005DF804FB002300B5012983B0ADF80630AB
:1011E00003D8184603B05DF804FB014602220DF156
:1011F000060003F0E1FBBDF80600000A03B05DF84D
:1012000004FB00BF007870470078704784460023D5
:1012100010B50C4682B00DF1060002226146ADF811
:10122000063003F0C9FB012C8CBFBDF806009DF809
:10123000060040BA80B202B010BD00BF8446002351
:1012400010B50C4682B00DF1060002226146ADF8E1
:10125000063003F0B1FB012C8CBFBDF806009DF8F1
:10126000060040BA80B202B010BD00BF00787047DF
:1012700008707047007870478446002310B50C460C
:1012800082B00DF1060002226146ADF8063003F08F
:1012900093FB012C8CBFBDF806009DF8060040BAF8
:1012A00080B202B010BD00BF087070470078704770
:1012B00038B50C46064D0749074B0A6028600749B8
:1012C00001201C600AF06AFF054B186038BD00BFA2
:1012D000842803207C2803208028032094270320CF
:1012E000E42703202DE9F041584E82B0306805F024
:1012F000CBF9306805F034F8002840F087800022F0
:10130000534D402153482A71EA602A616A61AA61FB
:10131000AA60EA6185F8202005F018FE306805F023
:10132000B3F9092201233068C0E90D2305F018F84C
:10133000002840F0888000240222012340F2FF713F
:10134000C5E90B23444FDFF82081A9636C6202E0FA
:101350000134092C0ED037F8023F41463068AC62A8
:101360006B6305F0E7F80028F2D00134FFF728FEA0
:10137000092CF0D102234FF08042002001216B6440
:101380006FF06043C5E90F20344A3068C5E9121296
:1013900033492B6505F0CEF808B1FFF711FE0023A5
:1013A000022230681146009305F0F0F8002847D17A
:1013B000306805F00DF900283FD100220121306886
:1013C00005F0BAFAB0BB00220621306805F0B4FA85
:1013D00068BB07224FF4F051306805F0ADFA18BB36
:1013E00007228021306805F0A7FAD0B900221D49F4
:1013F000306805F0A1FA88B900224FF46021306806
:1014000005F09AFA28B902B0BDE8F081FFF7D8FDDF
:1014100075E702B0BDE8F041FFF7D2BDFFF7D0FDA0
:10142000EAE7FFF7CDFDE1E7FFF7CAFDD8E7FFF7F1
:10143000C7FDCEE7FFF7C4FDC5E7FFF7C1FDBCE779
:10144000FFF7BEFDB4E7FFF7BBFD74E78428032078
:10145000000003200004024236EB0008FECA7700B9
:101460003C0003200040710024000320014B186859
:1014700005F00AB9842803202DE9F0470546C06825
:101480000F4603F091FAAB68B3F1005F3CD006461B
:10149000824600F12409254C4FF0FF3120680AF004
:1014A00087FF0128F8D1DFF89080D8F800000BF012
:1014B00035F9484515D202251D4A13792B4313717E
:1014C000002320681A4619460AF0CCFD002319496A
:1014D00002220968086819460CF030F92846BDE870
:1014E000F08729464FF0FF332422D8F800000BF094
:1014F00033F9054686B94D450CD00D4A01251379BF
:1015000043F008031371DBE74FF0000A4FF02409A2
:101510005646C0E70025D3E7524639464FF0FF3321
:10152000D8F800000BF018F90544E4E7E42703209D
:1015300000000320802803208C27032000232DE9AE
:10154000F0430C4683B0C9070546019316D4A207A1
:1015500007D502212D4A137943F0010313712B683B
:101560001965630735D4019B2BB14FF0E0234FF091
:101570008052C3F8042D03B0BDE8F083DFF89880F3
:10158000224F42464021224B05F0F6F87B69D8F8FD
:101590000C0001337B6103F007FADFF88090064608
:1015A000D9F800000BF0BAF806F12803984223D3CB
:1015B00041462822D9F8000001AB0BF051F9002E6A
:1015C000C5D03246D9F80000114901AB0BF048F9FB
:1015D000BDE704240D4B0F499A69096801329A61ED
:1015E0001A7942F008021A712B6808680DEB0401A1
:1015F0001C650CF08DF9B6E7064ABB691268013329
:10160000106801A9BB610CF083F9A0E7000003207A
:101610003C2803207C280320142803209027032043
:1016200010B500240A4A0B491369096882B008689A
:10163000013301A9136101940CF06AF9019B2BB1EC
:101640004FF0E0234FF08052C3F8042D02B010BDDC
:10165000000003208028032010B500240A4A0B490B
:10166000D369096882B00868013301A9D361019484
:101670000CF04EF9019B2BB14FF0E0234FF080525C
:10168000C3F8042D02B010BD000003207C28032005
:1016900038B50C46104D294605F00EF9A10303D5C7
:1016A000EB68A3B90D4A1360620309D52B690B4A95
:1016B000012B13790CBF43F0040303F0FB031371F8
:1016C000230303D50122054B83F8202038BD4FF0BA
:1016D0000042024B1A60E7E7E827032000000320DE
:1016E000014B1860704700BF8828032091B14FF06C
:1016F000FF3210B4084C014410F8013B5340DBB2F8
:1017000054F82330884283EA1222F5D1D0435DF8A1
:10171000044B7047084670474CEB00080022014B11
:101720001A60704790280320704700BF024A136870
:1017300001331360704700BF90280320024A1368EA
:1017400001331360704700BF8C28032000200BF08A
:1017500003BB00BF00200BF0FFBA00BF00200BF05E
:10176000FBBA00BF00200BF0F7BA00BF0022014B0C
:101770001A7070477600032000294AD030B57728C8
:101780000C4683B02DD8572800F284801A2800F028
:101790003981A0F124031F2B39D81F2B37D8DFE85C
:1017A00013F00D01360036003600360036003600E4
:1017B00036003600360036000601360036003600A8
:1017C000360036003600360036003600FF003600A0
:1017D0003600360036003600360036003600360059
:1017E000F800B0F5EA7F12D2B0F5DC7F12D2B0F586
:1017F000A87F00F00D8100F2FA80982800F0928016
:10180000A22804D11046FFF7FFFC844BD87503B023
:1018100030BD7047A0F5DC731B2BF8D801A151F83F
:1018200023F000BF311900080F1800080F18000836
:101830004D1900080F1800080F1800080F180008AD
:101840000F1800080F1800080F1800080F180008DC
:101850000F1800080F1800080F1800080F180008CC
:101860000F1800080F1800083F1900080F1800088B
:101870000F1800080F1800080F1800080F180008AC
:101880000F1800080F1800080F1800080F1800089C
:101890005B190008A0F158031F2BB8D801A151F81B
:1018A00023F000BF691900080F1800080F1800087E
:1018B0000F1800080F1800080F1800080F1800086C
:1018C0000F1800080F1800080F18000885190008E5
:1018D0000F1800080F1800080F1800080F1800084C
:1018E0000F1800080F1800080F1800080F1800083C
:1018F0000F1800080F180008771900080F180008C3
:101900000F1800080F1800080F1800080F1800081B
:101910000F1800080F1800080F1800080F1800080B
:10192000CB1900081046FFF76DFC3C4B98756EE72D
:1019300021461046FFF79EFC384B988367E7214607
:101940001046FFF77BFC354B588260E72146104676
:10195000FFF7ACFC314BD88359E721461046FFF71F
:1019600085FC2E4B188252E721461046FFF7EAFB12
:101970002A4B58814BE721461046FFF713FC274BB3
:10198000D88144E721461046FFF7F4FB234B18812A
:101990003DE721461046FFF7BDFB204B988236E716
:1019A00021461046FFF79EFB1C4B98802FE72146EF
:1019B0001046FFF77FFB194BD88028E721461046D9
:1019C000FFF760FB154B188021E721461046019276
:1019D000FFF7EAFB114D012C28733FF418AF019A71
:1019E00021461046FFF7F6FB85F820000FE740F28E
:1019F000A71398427FF40BAF1046FFF707FC074B85
:101A0000588304E71046FFF725FB044B5880FEE699
:101A10001046FFF731FC014B1883F8E65400032011
:101A20002B4B1B7893B92DE9F0410546294E82B026
:101A300006F1080756F8044BE36E626EEB1A934208
:101A400005D2B742F6D102B0BDE8F0817047B4F9D3
:101A5000723004EBE300002B00F1240026DAB4F925
:101A6000743004F12408002B4FEAE3010BDA1A4B1F
:101A700041461B6820462361FFF7FEFCA36EE56626
:101A80000133A366DDE74046FFF730FE04220190F4
:101A9000B4F974000DEB02010028B8BF0730C01084
:101AA000243004FA80F002F087FFE0E7B4F86830F1
:101AB00001A95BBA0222ADF8043002F07DFFB4F94F
:101AC000743004F12408002B4FEAE301CFDBDAE79E
:101AD000760003204CEF00080000032010B50446F8
:101AE000064B1960064B1A60064B029A1A6002F008
:101AF00041FD204602F078FF002010BD9C28032005
:101B0000982803209428032038B5054602F04CFDA0
:101B10000446284602F074FF2043C0B238BD00BF1F
:101B2000134B70B51B6804460D46164602F064FD63
:101B3000012809D00F4B3246294620461B6802F087
:101B400089FF012809D070BD00230B4A194612688D
:101B5000106802220BF0F2FDECE70023BDE87040B4
:101B6000054902220968086819460BF0E7BD00BF65
:101B700098280320942803209C280320F8B54FF4CC
:101B8000805600240F46054683190470C0F80240B1
:101B9000047384601C74C3F812409C61DC8100F5FE
:101BA000005332462146C3E907445F620D300CF012
:101BB0003DFCA81932462146BDE8F8401C300CF027
:101BC00035BC00BFF0B5044683B0836031B31578EF
:101BD00094462B09032B21D8DFE803F0253A600255
:101BE00005F00F0500F50056012986F8215000F098
:101BF000AB809CF80130022986F8223000F0A780E3
:101C00009CF8023086F82330002D00F0AC80012DC6
:101C100000F09F80032204F580531A74237B012B6C
:101C200073D003B0F0BD03780BB1002303706B1EBB
:101C3000062BF3D801398D42F0D82A460CF1010168
:101C400004F10D0002F0B8FE022365802370E5E781
:101C500003780BB1002303700729DFD99CF800300B
:101C60009CF801201B0203F470631343072BA3802D
:101C7000D4DD06220CF1020104F10D0002F09CFEFD
:101C800001220021062004F5005622706080B17701
:101C900004F58051CA813023F27F3CE00378012BA8
:101CA000BCD100F58057FA8905F00F0502F00F034B
:101CB0009D4246D14088A3881B1A9BB2072B5BD953
:101CC0000829ABD10132FA814B1EDDB20D302A4614
:101CD0000CF10101204402F06FFE6388A2882B44BE
:101CE0009BB29A4263804FD004F50056F27F002ADF
:101CF00094D0FB89013B93FBF2F102FB1133002BE3
:101D00008CD1B37F43F0300305E004F50056B37F78
:101D1000F27F43F03003002196F8200021738DF804
:101D200002000320746A8DF800308DF8012002F063
:101D300041FE03466946706AE360FFF79DFB03B00E
:101D4000F0BD0023037069E7002386F822300023EA
:101D500058E704F58052137C013B012B3FF65EAF40
:101D6000022313745AE704F580531A7C022A7FF485
:101D700055AF01221A7451E78B42BFF44FAF0132C5
:101D8000072BFA81A1D19FE70223237046E700BF0A
:101D90002DE9F84300F58056347C012C03D0002453
:101DA0002046BDE8F88300F500581D4698F823301A
:101DB0000F46F12B28BF0123B1698446691A994265
:101DC000EDD3718AB38A99B9072B50D810463146A2
:101DD00000F8013BB28A1C3102F0EEFD0322B38A07
:101DE00001333B70B38A7382A8F81C4032743AE026
:101DF00010465B1A1FFA83F9B8F81C30B9F1070FC7
:101E000003F00F0343F0200300F8013B718A01F552
:101E1000805101F11C01614414D9072202F0CCFD6C
:101E200008233B70738A0733738298F82220B8F82E
:101E30001C30AAB1B3FBF2F102FB113282B90222CB
:101E400032740DE04A4602F0B7FD032309F10102A6
:101E50003A703374738A9944B8F81C30A6F812901B
:101E60000133A8F81C302046B561BDE8F883C3F300
:101E7000032343F010031370B38A00F580515370AD
:101E8000901C1C31062202F097FD082306223B70AD
:101E900002237282A8F81C403374E4E70378012B14
:101EA00006D18268034B891A9942C4BF002303708C
:101EB00000207047400D030030B500F580551446F2
:101EC0002A7C0B46013A012A93B006D8AA698A1ADD
:101ED00012498A4284BF03222A7402AA0DF1070123
:101EE000FFF756FF50B92B7C032B02D0002013B014
:101EF00030BD002301202B7413B030BD9DF80700C6
:101F000002F058FDE06002E0012002F061FD204691
:101F100002A9FFF7B1FA0028F6D1E4E7400D03006B
:101F200000F5805CBCF81430B3F5805F0FD800B5C5
:101F300000224FF0010E00F50053ACF812209A83F6
:101F40008CF810E01046CCF818105DF804FB012066
:101F5000704700BF10B57F2484464FF0110E032157
:101F600014709CF800C0002082F802E082F801C0E2
:101F7000198010BD814211D9B0F1005F10D21A4B07
:101F800098422AD8194B984205D9194881428CBFEA
:101F9000002001207047B0F1006F0FD20020704781
:101FA000144B994201D801207047134B9842F5D940
:101FB000124881428CBF002001207047104B99428B
:101FC000ECD8104BB3F8E030B3F5007FEBD00E48FF
:101FD00081428CBF0020012070470C4881428CBF99
:101FE00000200120704700BFFFFFF90BFFFFF80B37
:101FF0000080F90B000004203F20024040210240F5
:10200000000008080005FA0B000004080002FA0BA3
:10201000704700BF094A0A4B52880A491878B2F53E
:10202000407F087006D9B2F5206F8CBF03220222D0
:102030001A70704701221A70704700BFA42803204D
:1020400078000320A02803200022014B1A7070475B
:10205000AA28032070B505460120424B424C1B784C
:10206000424E991E81428CBF00210121A383FEF7BD
:10207000B3FF218B022089B2FF2994BF00210121E7
:10208000FEF7AAFFF369002B62D14FF47A71384B47
:1020900096F82020A3FB05039B0901FB1355B5F51A
:1020A000FA7F34BF00250125012A56D023889BB230
:1020B0000F2B49D8218A89B2003918BF0121042089
:1020C000FEF78AFF238BDBB2022B0BD0238BDBB214
:1020D000032B07D0218BC9B2A1F10401B1FA81F120
:1020E000490900E001210820FEF776FF238BDBB2CF
:1020F000032B2BD0218BC9B2A1F10401B1FA81F1DC
:1021000049091020FEF768FF218B2020C9B2A1F1F8
:102110000401B1FA81F14909FEF75EFF638B4020AB
:102120009BB2FF2B94BF002105F00101FEF754FF85
:10213000638B8020DBB2002B0CBF002105F0010176
:10214000BDE87040FEF748BF0121B8E70121D8E79C
:1021500001210220FEF740FF97E729460220FEF703
:102160003BFFA3E778000320540003200000032076
:10217000D34D6210024A034B10601960704700BFD4
:10218000B0280320AC280320002300B5094A83B0FF
:10219000126801A9106801930BF0BAFB019B2BB1E7
:1021A0004FF0E0234FF08052C3F8042D03B05DF8E8
:1021B00004FB00BFAC28032038B50446094D0022BB
:1021C0002846042104F0C2FE074B2146012218686C
:1021D00007F01CFE2846BDE838400122042104F027
:1021E000B5BE00BF00040242B0280320014B1860B6
:1021F000704700BFB4280320704700BF00B5054BEF
:1022000083B0186801A907F041FC019803B05DF89C
:1022100004FB00BFB4280320F0B414688C4226D21B
:10222000661C166010F904C0055DBCF1000F044483
:1022300020DA05F07F056F1E032F18D82E448E423A
:1022400015D80026C0F1020025440719176014F8BC
:1022500001CFAC424CEA0626F7D11E6013681E443B
:102260008E4288BF0020F0BC98BF0120704700203C
:10227000F0BC70471D6013681D448D4288BF00206C
:10228000F0BC98BF012070472DE9F04F002488462C
:10229000114683462246764B764DEBB0CDE90435A8
:1022A00003F18833039303F1AE4303F5961303F66A
:1022B0008B630293A3F18833019308F1480323F061
:1022C0003F030DF1670A0DF5B679069309911146A2
:1022D0000DF127000AAB06E01BF80140013100F8C0
:1022E000014F82450BD08845F6D80CBF012400244D
:1022F000E40100F8014F824501F10101F3D1069993
:1023000040328A4200F09B8019AF384659781C78D9
:10231000090441EA0461DC780433214313F8024CD8
:1023200041EA042140F8041F29A98842EED1299BE3
:102330001BA9DDE92765DDE91A4E00E086469C46CB
:10234000CB6951F8040F4340734063404FEAF37385
:1023500049452E46744665468B63EFD10021DDE981
:10236000040EDDE90254CDE9072B019E11E0DFF8F0
:1023700008B16A4057F8043F4FEAB50C03EBF66327
:102380005B441344734401318646354620461E465D
:10239000644613290FD9272980EA0402E7D940EAC5
:1023A00004023B2902EA05020CD800EA0403DFF824
:1023B000CCB01A43DEE780EA04022A40DFF8C0B05E
:1023C0004240D7E757F8043F80EA040203EBF66384
:1023D00003F14A4303F5C50303F583436A405633CB
:1023E00001311344502973444FEAB50CCCD1DDE9D7
:1023F000072B01991944029B019133440293039BDB
:1024000063440393049B23440493059B0344059373
:10241000069B9A42FFF45BAF019B09991BBA0B60C4
:10242000029B1CBA039B4C6018BA049B88601ABAC2
:10243000059BCA601BBA0B616BB0BDE8F08F002131
:102440001AAF4FEA58764FEAC80CC1F12005A1F146
:1024500020042CFA01F006FA05F526FA04F42843C4
:1024600008312043402907F8010DEED14CE700BFA9
:1024700076543210F0E1D2C3A1EBD96EDCBC1B8FD5
:102480009979825A2DE9F04F894B8A4EE7B0CDE910
:102490000736DFF838C2884B0027CDE9053C844673
:1024A000864BDFF82CE2864CCDE9033E03F1FE4378
:1024B000A3F5E823A3F2ED430293824B0EAD019303
:1024C00001F1480323F03F0316468B4609930FCCD6
:1024D0000FC594E80F0085E80F003A4661460D9657
:1024E00010460DF1570416AB07E00D5C013004F8FF
:1024F000015F0DF19705A5420DD08345F5D80CBFBE
:1025000001250025ED0104F8015F0DF19705A542B5
:1025100000F10100F1D109984032824200F0AF8011
:1025200025A80546009026AC58781E78000440EA9D
:102530000660DE780433304313F8026C40EA06206C
:1025400045F8040F35A8A842EED1DDE934631846FA
:10255000269D2F464FEAF64354F8045F83EA7643FC
:1025600083EA96230646206A03444FEAB54080EA90
:10257000F51080EAD5000344F81856AB9C42E0639E
:10258000E7D1CDE90A21DDE90779DDE9050EDFF8BC
:1025900044C1CDF830B0DDE90358DDE9014605E07E
:1025A000774635468646264650461C46009B5CF8D4
:1025B000042F53F8041F4FEAF02A00938AEAB0135D
:1025C0000A4483EA7063134427EA000A00EA0E0211
:1025D0008AEA020A86EA05014FEAB40282EA743204
:1025E000214006EA050B534482EAB45281EA0B010A
:1025F0004B440A4403EB080A1344334AB946944552
:10260000A846CDD18446DDE90B1B01980A9A1844EF
:10261000029B019023440293039B33440393049B46
:102620002B440493059B53440593069B63440693F4
:10263000079B73440793089B3B440893099B9A426A
:10264000FFF44EAF089B0D9E1593079B0DAA1493A4
:10265000069B15A91393059B1293049B1193039B4F
:102660001093029B0F93019B0E9352F8043F1BBAE9
:10267000914246F8043BF8D167B0BDE8F08F0020E6
:102680000DF1980C4FEA5B774FEACB0EC0F12006B4
:10269000A0F120052EFA00F407FA06F627FA05F550
:1026A000344308302C4340280CF8014DEED137E775
:1026B000ABD9831F19CDE05B7F520E5172F36E3C94
:1026C0000CE6000867E6096A14F100088C68059BAF
:1026D0003AF54FA514F0000850B3B2F800C08C458D
:1026E00026D810B5A1EB0C0E1FFA8EFEBEF1010F1D
:1026F0001CD90CF1020E1FFA8EFE8E4530F80CC06C
:10270000A2F800E012D89CFA9CFCA1EB0E0189B261
:102710001FFA8CF4A14209D370441860029B012077
:10272000A3F800C013881C44148010BD002010BD05
:10273000002070472DE9F043ADF5037D6C469946C6
:1027400090468A9E0F4640F201120021054620461F
:102750000BF06CFE40F20112002141A80BF066FE66
:10276000324649460DF205100BF0ECFE06F1010E63
:1027700004EB0E0108EB060200238846B81910F896
:1027800001CD12F8019D8742CC44634408F8013D15
:102790004FEA1323F3D10DF10100237041AA234620
:1027A00000EB060C02E011D863450FD013F8017B53
:1027B00012F8010B8742F6D2324628460DF101018C
:1027C0000BF0C0FE0DF5037DBDE8F083002241ABA8
:1027D00003EB0E0011F8013D10F8017DDB1B9B1A85
:1027E00046BF03F5807301220022A1420B70F1D194
:1027F000E2E700BF2DE9F0430E4694468BB0B26885
:10280000F36805460868496802AF3C46BE460FC7F4
:102810003069F3697169B2690FC70CF1FF330CF1CC
:102820001F0002E03DD898423BD013F8012F1EF85C
:10283000011B9142F6D2A0464FF0000EDFF88C90BB
:102840000CF1200CB9E80F00A8E80F0099E80F0080
:1028500088E80F000AAF17F8013D1CF8012D9B1AFC
:10286000B3EB0E0346BF03F580734FF0010E4FF03C
:10287000000EA7423B70EED120273246214620466B
:10288000114B0097FFF756FF0FCC28606960AA60D4
:10289000EB600FCC28616961AA61EB610BB0BDE808
:1028A000F08300210AAA0CF1200C12F8013D1CF85B
:1028B000010D1B1A5B1A46BF03F58073012100212D
:1028C00094421370F1D1DFE7F8EF00082CE600081E
:1028D0002DE9F04F0C461F46ADF5037D8C9E00217F
:1028E00042AD8346904602A832460BF09FFD21463A
:1028F000324628460BF026FE7B1E2A469C1902E033
:1029000031D89C422FD013F8011F12F8010B8842D6
:10291000F6D200244FEAC60A06F1FF3909E03B4629
:102920002A462946284600960134FFF703FF5445FE
:1029300010D2A9EBD40318F8033004F007021341B6
:10294000DB07ECD502A93B462A4608460096FFF76E
:10295000F1FEE4E73246584602A90BF0F3FD0DF50F
:10296000037DBDE8F08F0021AA19B81912F8013DC6
:1029700010F8014D1B1B5B1A46BF03F58073012144
:10298000002195421370F1D1C3E700BF2DE9F0415A
:1029900017469AB002AC1646054688460FCF0FC4BC
:1029A00097E80F0084E80F009DF82740012C52D9CA
:1029B000023C20220021E4B20AA88DF827400BF047
:1029C00035FD0123D8F80000D8F80410D8F8082005
:1029D0008DF84730D8F80C300DF1480CACE80F00FA
:1029E000D8F81000D8F81410D8F81820D8F81C30EF
:1029F000FF242027ACE80F0001E0013C1AD30AAA0B
:102A00003346114610460097FFF762FF1AABA3EB5F
:102A1000D40111F8411C04F0070C41FA0CF1CB076A
:102A2000EBD50AA93346084612AA0097FFF750FFD4
:102A3000013CE4D20DF1280CBCE80F00286069606D
:102A4000AA60EB60BCE80F0028616961AA61EB61D4
:102A50001AB0BDE8F0811F23FF210DF1270234B920
:102A6000013B11700BD012F8014D002CF8D06833E7
:102A7000013C6B4403F8604C9DF8274098E79DF8B3
:102A80000840F4E770B500F13F0E05467346244A4E
:102A90009AB000F15F0402E03FD8A3423DD013F8A2
:102AA00001CF12F8011B8C45F6D200201EF8012F31
:102AB000A64540EA0200F9D100282FD0202405F1D4
:102AC0004006314602A8164AFFF760FF02AA1146E7
:102AD0000AA8134B0094FFF7FBFE02AA0AA912A84A
:102AE0000F4B0094FFF7F4FE294628460AAA0C4B28
:102AF0000094FFF7EDFE29190846094B12AA00942D
:102B0000FFF7E6FE2246002130460BF08FFC012342
:102B1000184685F85F301AB070BD00201AB070BD3D
:102B2000F8EF000870B414688C4202D370BC002027
:102B30007047039D2C60651C1560045D1C70136854
:102B40009942F3D95D1C156010F903C0C45CBCF157
:102B5000000F03441ADA04F07F04661E032EE5D842
:102B60002544A942E2D30025C0F102001C44C61846
:102B7000166013F801CFA3424CEA0525F7D1059B57
:102B80001D6013681D44A94206D2CFE7059B1C6057
:102B900013681C44A142C9D30498036005980068D7
:102BA00003448B42069988BF002070BC98BF012067
:102BB0000B601360704700BF2DE9F04791F860602B
:102BC0000446D2B05EB932460D4601F11F033F31D3
:102BD00013F8010F8B4242EA0002F9D1AAB9202270
:102BE000002120460BF022FC20220021A0180BF02F
:102BF0001DFC2022002104F140000BF017FC0126EF
:102C000084F8606052B0BDE8F0874FF0200905F10C
:102C1000400805F1200742464146884B02A8CDF8FE
:102C20000090FFF755FE3A463946844B0AA8CDF886
:102C30000090FFF74DFE2946804B0AAA12A8CDF856
:102C40000090FFF745FE294602AA22A8FFF7D2FD11
:102C500029467A4B02AA2AA8CDF80090FFF76AFD10
:102C6000764B2AAA22A91AA8CDF80090FFF730FEC9
:102C700000214A464AA80BF0D9FB0325DFF8BCA186
:102C80004AA953460846CDF800901AAAFFF752FD0C
:102C9000013DF5D1CDF800900DF1680C0DF5947E55
:102CA000BEE80F00ACE80F009EE80F008CE80F00B4
:102CB0001AAA1146614B22A8FFF70AFE29462022D4
:102CC0004AA80BF0B3FB08254FF0200ADFF86C91FF
:102CD0004AA94B460846CDF800A012AAFFF72AFDE4
:102CE000013DF5D10DF1A80C0DF5947EBEE80F0065
:102CF000ACE80F009EE80F008CE80F002AAA22A97A
:102D00003AA8FFF777FD294620224AA80BF08EFB50
:102D100004254FF02009DFF824A14AA953460846AC
:102D2000CDF8009012AAFFF705FD013DF5D10DF198
:102D3000880C0DF5947EBEE80F00ACE80F009EE80D
:102D40000F008CE80F003AAA22A92AA8FFF752FD2B
:102D50003A4B2AAA1AA9CDF8009032A8FFF7B8FD7D
:102D60000AAA1146354BCDF8009022A8FFF7B0FD16
:102D7000294620224AA80BF059FB08254FF02009CC
:102D8000DFF8B8A04AA953460846CDF8009022AA19
:102D9000FFF7D0FC013DF5D122AD0DF5947CBCE8E8
:102DA0000F000FC59CE80F0085E80F0032A922AA8A
:102DB00042A8FFF71FFD4246394622A81F4BCDF817
:102DC0000090FFF7B7FC22AA1C4B11461046CDF825
:102DD0000090FFF77DFD22A908460AAAFFF70AFD29
:102DE00002AA22A94AA8FFF705FD3AAD42AF0DF5A8
:102DF000947C0FCD20606160A260E3600FCD206104
:102E00006161A261E3610FCF20626162A262E3624D
:102E10000FCF20636163A263E363BCE80F0084F813
:102E2000606020646164A264E364BCE80F00206514
:102E30006165A265E36552B0BDE8F087F8EF000870
:102E40002DE9F04791F86040054691461E46F2B0E4
:102E5000002C40F002814FF0200A0F4601F140089B
:102E600042464146A04B02A8CDF800A0FFF730FD36
:102E700049469D4B02AA0AA8CDF800A0FFF728FDFD
:102E80004146994B02AA4AA8CDF800A0FFF720FDC1
:102E9000954B31464AAA12A8CDF800A0FFF718FDBD
:102EA00007EB0A093A460AA91AA8FFF7A3FC4A4603
:102EB00012A94AA8FFF79EFC0DF167030DF18702E6
:102EC00013F8010F934244EA0004F9D19CB90DF2C2
:102ED00027130DF2471113F8012F994244EA020417
:102EE000F9D1002C40F0EA8039462846FFF764FE0D
:102EF00072B0BDE8F08720241AAA11467A4B22A8A6
:102F00000094FFF7E5FC002122466AA80BF08EFA38
:102F10000426DFF8D4A16AA953460846009422AAE1
:102F2000FFF708FC013EF6D100940DF1A80C0DF559
:102F3000D47EBEE80F00ACE80F009EE80F008CE8DE
:102F40000F002AAA1AA932A8674BFFF7C1FC4AAAA8
:102F5000114600943AA8644BFFF7ECFB39462AAAC5
:102F6000009442A8604BFFF7B3FC3AAA11465E4BAF
:102F700000944AA8FFF7ACFC4AA9084632AAFFF71A
:102F800039FC42AA584B1146009452A8FFF7D2FBD5
:102F900052AA4AA95AA8FFF72DFC5AAA42A94AA840
:102FA000FFF728FC4AAA10463AA900944E4BFFF7B7
:102FB0008FFC494632AA009452A84B4BFFF788FC7D
:102FC00052AA11461046484B0094FFF7B3FB52AA91
:102FD0004AA962A8FFF70EFC41461AAA00944AA823
:102FE000414BFFF7A7FB4AAA3F4B114610460094FE
:102FF000FFF76EFC4AA9084602AAFFF7FBFB22AACC
:103000004AA96AA8FFF7F6FB5AAF0DF5C47C6AAC73
:103010000FCF28606960AA60EB600FCF28616961FB
:10302000AA61EB61BCE80F0028626962AA62EB62E8
:10303000BCE80F0028636963AA63EB630FCC85F8D3
:10304000606028646964AA64EB640FCC28656965D4
:10305000AA65EB6572B0BDE8F08710685168D9F8D1
:103060000C30926828606960AA60EB60D9F81000A3
:10307000D9F81410D9F81820D9F81C3028616961E2
:10308000AA61EB6132687068B168F3682A626862AD
:10309000A962EB6232697069B169F3692A63686396
:1030A000A963EB632022002105F140000BF0BEF97B
:1030B0000123A5F85F3072B0BDE8F087202200211F
:1030C00028460BF0B3F920220021A8180BF0AEF926
:1030D0002022002105F140000BF0A8F9012385F81A
:1030E000603072B0BDE8F087F8EF00082DE9F041DC
:1030F0009AB080460D4617460021202201A81E46A0
:103100000BF094F92022002109A80BF08FF920225E
:10311000002111A80BF08AF90123FF248DF86430F7
:1031200001E0013C16D301A90846FFF745FDA5EBD8
:10313000D40393F81FC004F0070E4CFA0EFC1CF0E9
:10314000010FEED001A933463A460846FFF778FE54
:10315000013CE8D26122404601A90BF0F3F91AB014
:10316000BDE8F08169B12DE9F0471D46012384B027
:10317000009303780746302B05D0002004B0BDE84B
:10318000F08700207047164601AB6A46FFF744F807
:103190000028F2D0DDE9003003EB00084145ECD314
:1031A000EBD14345E9D2F85C013330280093E4D1F8
:1031B000384602ABFFF730F80028DED0009B029AB9
:1031C00013449845D9D3D8D0FA5C0133032A00932D
:1031D000D3D16A464146384603ABFFF71DF80028B5
:1031E000CBD0009A039BD11888450091C5D3C4D198
:1031F000422BC2D1B95C0029BFD1BB185B78042B2C
:10320000BBD106F1FF3C6346084602F1020E07EB14
:103210000E0457F80EA0D4F80490D4F80880D4F81F
:103220000CE0C6F800A0C6F80490C6F80880C6F8FE
:103230000CE0D4F81880D4F81CE0D4F810A0D4F82E
:1032400014902232C6F810A0C6F81490C6F8188060
:10325000C6F81CE0BC1857F80280D4F804E0A76850
:10326000E268C5F80080C5F804E0AF60EA60D4F811
:103270001080D4F814E0A769E2691F36C5F8108001
:10328000C5F814E0AF61EA6113F8014FB34240EAB8
:103290000400F9D100283FF470AF6C1E204605F100
:1032A0001F0310F8012F834241EA0201F9D10029DE
:1032B0003FF463AF104D2A4604E03FF65EAFB445DD
:1032C0003FF45BAF1CF8010F12F8011B8842F4D2E7
:1032D00002E00FD8A3420BD014F8011F15F8012B00
:1032E0009142F6D24FF0FF30431C5842584145E717
:1032F0000020F9E70120F7E7F8EF00082DE9F04F8B
:10330000ADF52F7D17461E4602AA0AABBDF8E08236
:10331000BDF8E892FFF726FF20B900200DF52F7DBC
:10332000BDE8F08FB9F1000FF7D00122B99B63928D
:103330001B78302BF1D14946B9987CAB63AAFEF7D4
:103340006BFF0028E9D0639B7C9C1C44A145E4D31F
:10335000E3D1A342E1D2B998C05C01330228639360
:10336000DBD195AD2B46B998FEF756FF0028D4D097
:10337000DDF88CB1DDF854920BEB090A5445CDF819
:103380008CA1CAD309F1FF33202BC6D820220021FB
:1033900012A80BF04BF8B9F1210F4FF0200200F00A
:1033A0002D81A2EB090012AB1844B99B4A4603EBEE
:1033B0000B010BF0C7F85445AFD0B99B13F80A20A6
:1033C0000AF10103022A6393A7D12B462146B9983B
:1033D00063AAFEF721FF00289FD0DDF88CA1DDF85D
:1033E00054920AEB09039C42639396D395D109F159
:1033F000FF33202B91D84FF0200B1AAC0021204630
:103400005A460BF013F8B9F1210F00F00381ABEB32
:1034100009002044B99B4A4603EB0A010BF092F8DD
:1034200000210DF1480C0DF147020DF1670312F870
:10343000010F934241EA0001F9D100293FF46DAF39
:10344000204600220DF1870E13F8011F734542EA52
:103450000102F9D1002A3FF460AFDFF8D4910DF1F9
:10346000680E4B4604E03FF658AFF4453FF455AFC5
:103470001CF8011B13F8012B9142F4D26C4B04F1A0
:10348000200C04E03FF649AF84453FF446AF10F806
:10349000011B13F8012B9142F4D2012F00F08F8011
:1034A00041460DF18808304642462AAFFEF7EAFF52
:1034B0004FF0200BBA4620260021324638460AF04B
:1034C000B5FF5A46414650460BF03CF82146584A53
:1034D00032A8FFF75BFA3946554B32AA3AA8009654
:1034E000FFF7F6F9524B32AA12A942A80096FFF74D
:1034F000EFF9504B504A3AA94AA8FFF7F7FD0AAB3B
:1035000002AA42A963A8FFF7F1FD6122284663A938
:103510000BF018F89DF8EC31002B41D061224AA93C
:103520007CA80BF00FF89DF85032002B7FF4F5AE1D
:103530007CA8FFF7A7FA00283FF4EFAE2E467CAF39
:103540000FCF0FC697E80F00AC4686E80F000DF5C9
:103550001D7E02E040D8E6453ED01CF8012B19F84C
:10356000013B9A42F6D2002112AA94A852F8043BD9
:1035700050F8045FA24283EA050341EA0301F5D152
:10358000C1F307200843C1F30743184340EA116021
:10359000C0B2B0FA80F040090DF52F7DBDE8F08F84
:1035A0002846FFF76FFA00283FF4B7AE9DAB2A46D6
:1035B0004AA97CA8FFF744FC9DF85032B5E7414684
:1035C0000DF1880830464246FEF75EFE4FF0140BC0
:1035D0000DF1B40A2AAF6EE772460021174812F8BF
:1035E000013D10F8016D9B1B5B1A46BF03F580730C
:1035F0000121002195421370F1D1B4E7B99B13F872
:103600000B30002B7FF489AE91460BF1010B9592A4
:1036100012A8CAE6B99B13F80A30002B7FF47DAEDE
:10362000D94620460AF1010ACDF854B2F2E600BFAD
:10363000D8EF000898EF0008B8EF0008F8EF00088E
:103640002DE9F04F0D2A85B000F097800F2A03D0A6
:10365000002005B0BDE8F08F4218947B5A2CF7D1BA
:1036600010F801C0ACF1300C5FFA8CF4092CEFD8E3
:1036700092F801E0AEF1300E5FFA8EF2092AE7D837
:103680008A1C855C0244303DECB2092CE0D85278AB
:10369000303AD4B2092CDBD80C1D075D0444303F0E
:1036A000FEB2092ED4D86478303CE6B2092ECFD8C9
:1036B0008E1D10F806900644A9F130095FFA89F8CA
:1036C000B8F1090FC4D87678303E01969DF8048091
:1036D000B8F1090FBCD801F1080A10F80A80824439
:1036E000A8F130085FFA88FBBBF1090FB0D89AF84F
:1036F00001A0AAF1300602969DF808A0BAF1090FC0
:10370000A6D801F10A0A10F80AB08244ABF1300BD6
:10371000CDF80CB09DF80CB0BBF1090F98D89AF811
:1037200001A0AAF1300B5FFA8BFABAF1090F8FD81A
:103730000C3110F801A00844AAF1300A5FFA8AF1AE
:10374000092985D840783038C1B2092980D80A21A2
:1037500001FB0522019D01FB0CEE01FB0956029DB8
:1037600001FB074401FB0858039D01FB05B701FB62
:103770000A01642000FB0E228DE04218147B5A2CB3
:103780007FF466AF455C303DECB2092C3FF660AF8C
:103790005278303AD4B2092C3FF65AAF8C1C065DF1
:1037A0000444303EF7B2092F3FF652AF6478303C04
:1037B000E7B2092F3FF64CAF06EB860604EB460452
:1037C0000E1D875D0644303F5FFA87FCBCF1090F90
:1037D0003FF63EAF7678303E5FFA86FCBCF1090FCB
:1037E0003FF636AF07EB870701F1060C06EB4706FD
:1037F00010F80C708444303F5FFA87FEBEF1090F69
:103800003FF626AF9CF80180A8F130085FFA88FCEB
:10381000BCF1090F3FF61CAF07EB870708EB470821
:1038200001F1080710F807C00744ACF1300C5FFA4B
:103830008CFEBEF1090F3FF60BAF7F78303F5FFA89
:1038400087FEBEF1090F3FF603AF0A310CEB8C0C7B
:1038500007EB4C0710F801C00844ACF130015FFAE7
:1038600081FCBCF1090F3FF6F3AE407830385FFAC7
:1038700080FCBCF1090F3FF6EBAE05EB850502EBD2
:103880004502312A01EB810100EB410194BF02F5B1
:10389000FA6202F26C72601E0B283FF6D9AE013E4E
:1038A0001E2E3FF6D5AEB8F1170F3FF6D1AE3B2F27
:1038B0003FF6CEAE3C293FF6CBAE022C98BF013A84
:1038C000551C39D04FF4C87592FBF5F5032C34BF65
:1038D00009206FF00200DFF874C00CFB05220444DD
:1038E00099204FF0640C00FB04F4052040F26D1E9B
:1038F000B2FBFCFC0234B4FBF0F490080EFB0202B5
:1039000032441048A2EB0C02224400FB0522A2F52F
:103910002F22A2F66C22002AFFF69AAE3C204FF42A
:10392000616600FB07F406FB0844074D214405FBD4
:10393000021201201A608CE61546092040F28F120F
:10394000CDE700BFB13A02008051010070FEFFFFD9
:1039500069B12DE9F0411D46012386B0009303783B
:103960000746302B05D0002006B0BDE8F0810020CE
:103970007047164601AB6A46FEF74EFC0028F2D0AF
:10398000DDE9003003EB00084145ECD3EBD14345C2
:10399000E9D2F85C013330280093E4D1384602AB19
:1039A000FEF73AFC0028DED0009B029A13449845AB
:1039B000D9D3D8D0FA5C0133032A0093D3D16A4615
:1039C0004146384603ABFEF727FC0028CBD0009BCE
:1039D000039A9C18A0450094C5D3C4D1002AC2D034
:1039E000FA5C002ABFD15A1CA242BCD2BA5C023394
:1039F000302A0493B7D1384601AB04AAFEF70CFC79
:103A00000028B0D0049B019A03EB02084445AAD3D6
:103A1000A9D14345A7D2FA5C0133022A0493A2D16B
:103A20004146384605AB04AAFEF7F6FB00289AD0BB
:103A3000DDE90413CC18A045049494D340F201129C
:103A4000934235D0B3F5807F8DD130464FF48072EC
:103A500039440AF077FDA04585D03B5D0134022B47
:103A6000049480D14146384605AB04AAFEF7D4FB46
:103A700000283FF478AFDDE9043299188845FFF457
:103A800072AF7FF470AF013A032A3FF66CAF0022A9
:103A900010463B442A60474413F8012B42EA0020B9
:103AA0009F422860F8D1A0F10113584258415BE7CA
:103AB0007B5C002B7FF457AF4FF48073013105938B
:103AC000C3E700BF2DE9F041ADF54C7DBDF850C313
:103AD000BDF84863BCF5807F04D000200DF54C7D17
:103AE000BDE8F08115461C460CAA03ABFFF730FF7A
:103AF0000028F2D004AF012D3A463146204658D076
:103B0000FEF7C0FC20264FF48072D3998CA80AF0EF
:103B100019FD10244FF480758CAA114610460CAB89
:103B20000095FEF7D5FE013CF6D18CA908460CABFA
:103B30000095D39AFEF7CCFE8CA94FF480724CA866
:103B40000AF000FD1D4B142E1D4918BF19469DF8A3
:103B500030310CBF0F251325002BBED19DF831311C
:103B6000012BBAD1AA19C2F1FD080DF2311303EBF2
:103B7000080413F8010FFF28AFD19C42F9D1C2F11C
:103B8000FF034CA8C35C002BA7D1C2F58072104480
:103B90002A460AF03BFC00289FD1E81C4CAB40446D
:103BA0003246394618440AF031FCB0FA80F0400938
:103BB00094E7FEF769FB1426A5E700BF64EF000851
:103BC00054EF00082DE9F04FADF5017D8B9D049376
:103BD000002B00F0AA808A9B002B00F0A680002D0D
:103BE00000F0A3808C9B002B00F09F8000231446E4
:103BF00010220F468A992B700B808C99012806465B
:103C00000A7055D0032840F075831CAEADF82630FD
:103C10002146384600961EAB0DF12602FEF75CFDEC
:103C2000002800F0E6821DAB00933846214626AB03
:103C3000FEF752FD002800F0DC82BDF82630A342DA
:103C400040F0D7823C4C1E9F2378BDF870805BB358
:103C500063784BB3D4F80B20D4F80F10374B0DF525
:103C6000807C059206910FCBACE8070094F802E047
:103C7000D4F803A0059A0699D4F80790BEF1010F75
:103C8000ACF8003004F10306B4F814B2CDF80EA17C
:103C9000CDF81291CDF81621CDF81A1100F043831A
:103CA000BEF1020F00F0578335238C9A13703CE06D
:103CB000002F00F09E82042C40F29B820DF1220521
:103CC000ADF826002146384600950AAB0DF12602D4
:103CD000FEF702FD002800F08C8209AB0093384605
:103CE00021460BABFEF7F8FC002800F08282BDF8FD
:103CF0002630A34240F07D820A9CBDF822705CB160
:103D0000482200212EA80AF091FB7F2F04D901221E
:103D100023780C92302B13D040F216220021064853
:103D20000AF084FB13238C9A13704FF0FF300DF5CB
:103D3000017DBDE8F08F00BFE0280320F0E6000819
:103D4000394620460DAB0CAAFEF766FA0028E3D0F0
:103D5000DDE90C531D44AF42DED3DDD10DF1540932
:103D600014AF0DF14C080DF1480A2046CDF80C9027
:103D70000297CDF80480CDF800A00DF12103FEF7E5
:103D8000D1FE0028C8D09DF82130302BC4D1129B21
:103D900015990DF16409C91A23443C9318AB029399
:103DA0000DF1580A17ABADF8F410019329462046DF
:103DB000CDF80C90CDF800A00DF12103FEF7B2FE76
:103DC0000028A9D09DF82130302BA5D1DDF858A0CE
:103DD000199BB3EB0A099FD0012214F80A301E92F6
:103DE000302B04EB0A0B97D14946584626AB1EAA46
:103DF000FEF712FA00288FD01E9B269818448145A2
:103E00008AD389D14B4587D21BF80300013306289A
:103E10001E9381D1584640ABFEF7FEF900283FF4CF
:103E20007BAF1E9B409A991889451E91FFF474AF91
:103E3000092A00F09C82072A40F0D5820020AC4A73
:103E40000BEB030102F1070C12F801EF11F8013B33
:103E5000624583EA0E0340EA0300F5D100287FF4AF
:103E60005BAF012202238DF8C1300DF1440A1BAB78
:103E70000DF1680B0DF138098DF8C2200293294627
:103E80002046CDF80CA0CDF804B0CDF800900DF18F
:103E900021030CAAFEF746FE00283FF43DAF9DF833
:103EA0002130032B7FF438AF0C9BAB427FF434AF4F
:103EB0001B9A012A7FF630AF1A9BE15C00297FF440
:103EC0002BAFD8F800103D6801330D442344013A6C
:103ED000A9423E93ADF8FC201C9103D2635CA02B59
:103EE00000F00C820DF140080FAF29462046CDE9C5
:103EF000028ACDE900970DF121031CAAFEF712FEFC
:103F000000283FF409AF9DF82130022B7FF404AF65
:103F100029462046CDE9028ACDE900970DF121031B
:103F2000FEF700FE00283FF4F7AE9DF82130302B5D
:103F30007FF4F2AE29462046CDE9028ACDE900970A
:103F40000DF12103FEF7EEFD00283FF4E5AE9DF8EC
:103F50002130302B7FF4E0AE29462046CDE9028A9D
:103F6000CDE900970DF12103FEF7DCFD00283FF4B9
:103F7000D3AE9DF82130302B7FF4CEAED9F800308F
:103F8000DAF80020B2EB030B3FF4C6AE01221E921A
:103F9000E25CE318302A05937FF4BEAE59460598DB
:103FA00026AB1EAAFEF738F900283FF4B5AE1E9BDB
:103FB0002698181883450690FFF4AEAE7FF4ACAE99
:103FC0008342BFF4A9AE0598C05C01331E93A0F1F3
:103FD0001703012B3FF6A0AE059840ABFEF71CF986
:103FE00000283FF499AEDDF878B0409A594605981C
:103FF0002EAB0792FFF724FB00283FF48DAE079A03
:104000000BEB0203069A9342BFF486AE059AD25C8C
:1040100001331E93A2F11703012B3FF67DAEDDF8AD
:1040200018B00598594640AB1EAAFEF7F5F80028CF
:104030003FF472AE1E99409A8B185B457FF46CAECC
:1040400005982FABFFF7FCFA00283FF465AE294630
:104050002046CDE9028ACDE900971CAA0DF1210383
:10406000FEF760FD00283FF457AE9DF82130302B5D
:104070007FF452AE29462046CDE90178CDF80CA058
:10408000CDF800900DF12103FEF74CFD00283FF420
:1040900043AE9DF82130302B7FF43EAED9F800308E
:1040A000DAF800501C44ED1AADB26B1EB3F5007F78
:1040B0003A94ADF8EC50BFF42FAE2946204640AA02
:1040C0001DABFFF745FC002800F00981204629467A
:1040D000084C0DF1C3028DF8C060FEF7D3F90DF165
:1040E000C3039DF8C18004F5C877399308E000BF89
:1040F00077EF000818F100081434BC4200F06B811F
:1041000065794545F8D1A668B4F80C90D4F810A0AC
:104110004946304640AAFEF7B5F900215246A4466A
:1041200040A80AF1200E52F8043B50F8044B7245A7
:1041300083EA040341EA0301F5D1C1F307230B43EA
:10414000C1F30742134343EA1163DBB26446002B19
:1041500047D1012D9DF8C2203C9BBDF8F4103E983C
:10416000BDF8FCC047D0022DC6D1CDE9010C0091AD
:1041700030464946FFF7C2F80028BDD0DDE92E23BE
:104180009A422ED8A8498A422BD8A84A934228D9C5
:104190009DF8C0707B1E012B00F21D81DDF8E880C8
:1041A000BDF8EC501EAA29464046FEF76BF90022E6
:1041B0000DF1C3061EA90DF1E30456F8043B51F8B6
:1041C000040BA64283EA000342EA0302F5D1C2F3DC
:1041D00007231343C2F307410B4343EA1263DBB2E5
:1041E0008BB140F21622002191480AF01FF93323C7
:1041F00099E5132397E5CDE9010C00913046494636
:10420000FFF760FCB8E7012F00F0DA80294640464E
:1042100040AB26AAFEF7A6FF0028E2D0854E06F1A5
:10422000C80C002156F8042B1EA802F1200E52F8EB
:10423000043B50F8044B724583EA040341EA03014E
:10424000F5D1C1F307230B43C1F30742134343EAFC
:10425000116313F0FF0302D0B445E2D1C1E7B5F515
:10426000007F194600F2B380714C40F216222046BE
:1042700004F113060AF0DAF82A46414630460AF0FD
:1042800061F90123A770274607F8033BA4F81452ED
:104290003D46FDF7B3FF00BA45F8040BAE42F8D136
:1042A00001231022049D6370634B2A712B60BA684E
:1042B00000237868F968D4F80340C5F80D20172268
:1042C000C5F80540C5F80900C5F81110A5F8153066
:1042D00000208A9B1A800DF5017DBDE8F08F2946EC
:1042E000204626AB1EAAFEF73DFF00283FF414AD82
:1042F0000226EBE612238C9A137016E50DF14008A6
:104300000FAF29462046CDF80CA0CDF80090CDF88F
:10431000088001970DF121031CAAFEF703FC002879
:104320007FF4E3ADF8E41E2259460092CDE901780E
:10433000022240AB06F11000FFF7C4FB00283FF457
:10434000B3AC0023012063703C4928700498052217
:1043500001600371BCE706F110001E267246594643
:10436000CDE9017840AB0096FEF7C8FFE6E7591E9D
:10437000594408464FF0000C0833DFF8CCE05B44AA
:1043800010F8012F1EF8019F984282EA09024CEAB8
:10439000020CF5D1BCF1000F42D00020DFF8ACC018
:1043A00011F8012F1CF801EF994282EA0E0240EA4F
:1043B0000200F5D100287FF4AFAC0123022252E5C0
:1043C0002946404626AB40AAFFF7C2FA24E731232C
:1043D0008C9A1370A9E440F21622002114480AF0C6
:1043E00025F835239FE4082A7FF496AC9A4404EB21
:1043F0000A035B68124A54F80A105A40114B4B40AA
:104400001A43C2F307231343C2F307410B4343EAA2
:104410001263DBB2002B7FF47FAC02231A4622E545
:1044200001231A461FE500BF00D2496BFFD1496B3B
:10443000E0280320A8F200086901110069031200B6
:104440003D0403022A8648CE8BEF00087FEF000868
:104450002DE9F04100261027ADF5805D86B00129D9
:104460000446ADF816608DF814608DF815701AD9F1
:10447000407810F07F0543D03A4F97F80080B8F1AC
:10448000030F13D07F207E250321374B374A1B684B
:104490001268187020789D70587011800DF5805D3D
:1044A00006B0BDE8F0817F201325EDE70DF115037F
:1044B000029305AB8A1E01930DF116030093284663
:1044C00092B206ABA11CFFF77DFB002836D19DF808
:1044D000143023B10223C7E90300B8613B7794F994
:1044E0000130002BDADBBDF816402CB11E4B224602
:1044F000186806A90AF026F81C4B1B681C80CDE73B
:1045000040F2162229461A4809F090FF6922154BFD
:10451000ADF81820C3E903555D611D779D6194F9DD
:104520000130002BBADB03210F4B104A1B68BDF88A
:104530001800126818809F701180AFE77F21BB6957
:104540000A4A0133BB617B683E777B61064B9DF86D
:1045500015001B6812681970217898705970A2F8BC
:1045600000809BE7B8280320DC280320D8280320FC
:10457000E028032010B5024600244FF0010C074B41
:1045800007490848C3E904441C77DC6083F800C08D
:104590009C615A60FDF7F2FA204610BDB82803204E
:1045A0007C000320549F01200C4B01461A78032AFB
:1045B00002D00B48FDF772BC41F288305A688A1A63
:1045C0008242F6D90120002218700548C3E903226F
:1045D000C3E9052259601A77FDF760BCB8280320AB
:1045E000549F01200146024A0248FDF765BC00BF06
:1045F000A0000320549F012040F2E37C2DE9F0410C
:1046000000260446006882B060450F4698468DF843
:104610000560ADF8066007D040F2DF7398423BD0EA
:10462000002002B0BDE8F081E068154600F0BCF95A
:104630003A4C01462B4620463A46FDF7C3FA257808
:10464000022DEDD14FF0FF3301220DF10501D8F815
:1046500000008DF8056008F07FF82A464FF0FF3320
:104660000546A11CD8F8000008F076F802464FF085
:10467000FF331544D8F80000628804F10D0108F0FA
:104680006BF8638805440333AB4201D0FCF798FC18
:10469000002323700120C4E7E06800F085F90028BA
:1046A000BED03D78002DBBD005F0080353EA1513AA
:1046B000B6D1E06800F078F9431E9D42B0D80122DF
:1046C00017F8014B4FF0FF330DF1050104F00F0413
:1046D000D8F800008DF80520ADF8064008F03CF849
:1046E0004FF0FF33022204460DF10601D8F8000016
:1046F00008F032F802464FF0FF3314443946D8F838
:104700000000BDF8062008F027F8BDF80630044484
:104710000333A342BED0FCF753FCBBE7549F0120F8
:104720002DE9F0470027A2B02A9EDFF86892DFF853
:104730006882DFF868C20D4637801C461146C8F80B
:104740000060CCF80400C9F800306AB12B780F2B58
:1047500016D9292B29D01BD8102B2FD0222B2AD1A8
:10476000032A4AD07F2201E07F22297013210323EC
:1047700022702A78A1706270338022B0BDE8F08781
:1047800033462246284622B0BDE8F047FDF7E2BB9B
:104790003E2B10D1022AE5D16B78002B00F09080DF
:1047A000802BEAD07F221221E1E7284622B0BDE823
:1047B000F047FFF74DBE7F221121D8E7022AD1D161
:1047C0006B7803F07F03022B00F08A80032B7DD0EF
:1047D000012BE7D1CCE90377CCE905778CF81C7085
:1047E0008CF8003095F901306A78002BC5DB502138
:1047F0000223627021703380BFE744F24E4AB5F85D
:10480000012095F801E053BA5245A8789BB270D0C8
:1048100003F67C6292B2082A0BD8A3F57143843B5D
:10482000082B06D8DFE803F03C052F270505050512
:1048300008007F2231219AE70C224F490DF10B002D
:1048400000F0BAF80F272B78D9F80040D8F80060AC
:1048500040336A788DF80830AB788DF809208DF8F0
:104860000A3002ABE11913F8012B04F8012B8C423A
:10487000F9D1378081E7042240490DF10B0000F0A7
:104880009BF80727DFE79CF8003004278DF80B30F2
:1048900062238DF809E08DF80A008DF80830E0E712
:1048A0000C2237490DF10B0000F086F82023092275
:1048B000344906A88DF81730192700F07DF8C2E7B3
:1048C0007E2323706B786370328056E72E4A928A7B
:1048D00092B2B2F5805FFFF47DAF7F22882147E777
:1048E000294A928A92B2B2F5805F15D37F222221A3
:1048F0003DE7264B9CF81C201B78022ADBB28DF882
:1049000007309DF807301AD07F23332223702B788D
:10491000A2706370318030E7CCE90377CCE905778A
:104920008CF81C7095F901206978002A8CF8003009
:10493000FFF623AF50226170227033801DE73A46A4
:10494000134B01E07D2A13D013F8011F17460132E3
:104950000029F7D10E490DF10B0000F02DF82B784E
:104960000437D9F80040D8F800604033BFB270E790
:104970007F221421FBE600BF9005FA0B18E7000820
:1049800000E700080CE7000854000320240C01088D
:10499000E4E60008DC280320D8280320B8280320F8
:1049A000FFF7BEBE704700BF014BC0B2185C704736
:1049B000400C0108704700BF4AB1013A4B1E013854
:1049C000114413F8012F8B4200F8012FF9D17047E1
:1049D0004FF47A7202FB00F0024BA3FB0030800917
:1049E00007F0DCB9D34D621000220146034B10469C
:1049F000C3E903221A7059601A817047002B032003
:104A0000084B1A785AB14EF660215A68821A8A42C7
:104A100005D90022C3E9032258601A701A810020C8
:104A2000704700BF002B032038B5D0B20C46FFF70B
:104A3000C1FF074DE86002E00A2007F0AFF9214608
:104A40002846FCF719FD0028F6D1012038BD00BF2B
:104A5000B401032040F2565230B51C46036883B0BF
:104A6000934202D0002003B030BDC0680D46FFF76E
:104A70009BFFADF806000028F4D04FF0FF33022270
:104A800020680DF1060107F067FE84464FF0FF3302
:104A900020682946BDF80620644607F05DFEBDF893
:104AA000063004440233A34201D10120DBE7FCF7C6
:104AB00087FAFAE72DE9F041069EDFF85481504F5E
:104AC000504D3E606860C8F8003042B10C46FF218E
:104AD00019702178FF290ED02878012801D0BDE86F
:104AE000F081F53909291BD8DFE801F0203C1A1ABA
:104AF0001A2B1A5A4452012A01D06278DAB90022DC
:104B000001214FF4807408203F4FC5E903222A8118
:104B10002970C3F80170A3F80540D9713080DEE731
:104B200042F2FE01022219803280D8E7012A1BD00E
:104B3000617807293FD942F2FE2102221980328092
:104B4000CDE7012A10D06278002AF4D14FF08060BE
:104B50000821A3F80520DA712C4AC3F8010031803E
:104B60002A61BCE7082A20D042F2FE1102221980F5
:104B70003280B4E7002159702A7A0620013A18BF22
:104B800001221201D970197159719A703080A6E70B
:104B900000230122C5E903332B702B8132809EE76D
:104BA000FE2102221980328099E7012263681BBA34
:104BB0002B61328093E728690144FDF7DBF9012876
:104BC00008D042F2FE200222D8F800103B6808808C
:104BD0001A8084E7FF23D8F800000370617859B188
:104BE00000232A6912780133DBB2C2542A690132E8
:104BF0002A6161789942F5D83B68013119806EE7E6
:104C0000F82A0320002B032000000808500C01089C
:104C1000FC2A032010B50F4B82B0186E002240F022
:104C2000010018661C6E072104F001040094009C2A
:104C30009C6D6FF0010044F080549C659B6D03F007
:104C400080530193019B01F0CBF802B0BDE8104006
:104C500003F0B0BC0010024070B500210446ACB0B7
:104C6000942207A8CDE90211CDE90411069109F0BB
:104C7000DDFB324B22689A4201D02CB070BD032379
:104C80004FF480424FF08051CDE907230993182259
:104C900011232791CDE90A23022108224FF08073C6
:104CA00007A8CDE90D230C9104F060FB00283BD14F
:104CB000234B0026DA6C02A942F40052DA64DA6C63
:104CC000204D02F400520092009ADA6C42F0010288
:104CD000DA64DB6C322203F00103019303230198B1
:104CE0001948CDE90223049601F078FF80224FF4A1
:104CF00080730521C5E903626B614FF48062202354
:104D0000C5E9011611492846C5E906232E62296026
:104D100001F064F970B910210A4801F011FB30B9B3
:104D20002565AC622CB070BDFCF74AF9C0E7FCF712
:104D300047F9F5E7FCF744F9EDE700BF00800242D0
:104D400000100240B826032000000242080402407E
:104D5000094B02689A4200D07047A3F500539A6C41
:104D600082B042F480529A649B6C03F480530193A6
:104D7000019B02B0704700BF0030024000000000FD
:104D800010B500210446ACB0942207A8CDE9021169
:104D9000CDE90411069109F049FB274B22689A429C
:104DA00001D02CB010BD4FF000724FF0807307A8F7
:104DB0000792219304F0DAFA002832D19FED1A6BA2
:104DC0009FED1B7B09241D4B02A9DA6D1C4842F4A0
:104DD0000072DA65DA6D02F400720092009ADA6C01
:104DE00042F00202DA64DB6C8DED026B03F0020329
:104DF00001938DED047B019B069401F0EFFE0022F0
:104E00000521272000F0ECFF272001F025F80022E3
:104E10000521282000F0E4FF282001F01DF82CB027
:104E200010BDFCF7CDF8C9E7000300000200000048
:104E3000000000000000000000A40040001002403C
:104E40000004024208B502680A4B9A4200D008BD2D
:104E5000094A4FF44071D36D084823F40073D365B9
:104E600001F0CCFF272001F005F8BDE8084028201C
:104E700001F000B800A4004000100240000402420B
:104E800010B50446A6B09422002101A809F0CEFA7C
:104E9000114B22689A4201D026B010BD4FF48023F6
:104EA00001A8019304F062FA98B90C4B0022D86C67
:104EB000052140F48020D864DB6C5E2003F480235D
:104EC0000093009B00F08CFF5E2000F0C5FF26B031
:104ED00010BDFCF775F8E8E700080C42001002402E
:104EE000F0B50024414B026889B09A42CDE90244F2
:104EF000CDE90444069401D009B0F0BD03F5EC33CC
:104F00009A6D052642F480429A659A6D032702F451
:104F100080420092009ADA6C054642F00202DA649E
:104F2000DB6C4FF4204203F002030193022301994A
:104F30002F4802A9CDE90223CDE9057601F04EFE06
:104F400002224FF48043CDE902320123284802A90E
:104F500006960493059701F041FE80230E2110224E
:104F6000244EC6E90343244B3046C6E90112C6E984
:104F70000544C6E90744336001F030F848BB10210E
:104F80001C4801F0DDF968BB002380220D211B4C79
:104F90006E65C4E90233C4E90423C4E9063323621D
:104FA000174B2046B5626160236001F017F8B0B975
:104FB0001021124801F0C4F970B9002205213C20EB
:104FC000AC65A56200F00CFF3C2000F045FF09B085
:104FD000F0BDFBF7F5FFD2E7FBF7F2FFEDE7FBF7DC
:104FE000EFFFE5E7FBF7ECFFCEE700BF003800403E
:104FF0000004024268240320080002400024032029
:105000001C00024000B5036887B0B3F1804F0ED09A
:10501000304A93423BD0304A934216D02F4A9342B3
:1050200028D02F4A934247D007B05DF804FB03F520
:1050300004339A6D42F001029A659B6D03F00103FF
:105040000193019B07B05DF804FB264B0022986D8D
:10505000052140F0200098659B6D322003F020036D
:105060000393039B00F0BCFE322007B05DF804EB15
:1050700000F0F2BE1B4B1A6E42F400321A661B6E31
:1050800003F400330493049B07B05DF804FB154B55
:105090000022986D052140F0100098659B6D31202D
:1050A00003F010030293029B00F09AFE312007B038
:1050B0005DF804EB00F0D0BE0A4B1A6E42F4802279
:1050C0001A661B6E03F480230593059B07B05DF8F9
:1050D00004FB00BF001000400014004000440140E9
:1050E000004801400010024010B500210446ACB059
:1050F000942207A8CDE90211CDE90411069109F027
:1051000095F9214B22689A4201D02CB010BD4FF482
:10511000005307A8079304F029F950BB9FED166BC5
:105120009FED177B0A22194C02A9E36C184843F043
:105130000103E364E36C8DED026B03F00103009364
:105140008DED047B009B069201F048FDE36D00228B
:1051500043F40013E365E36D052103F400130193A9
:105160004920019B00F03CFE492000F075FE2CB068
:1051700010BDFBF725FFD1E700180000020000007A
:10518000000000000000000000D4004000100240B9
:105190000000024210B5014688B000222A2000F02B
:1051A0001FFE2A2000F058FE154B01A91A6E03A815
:1051B00042F400621A661B6E124C03F40063029301
:1051C000029B03F0CBFF03F0B1FF0346002140F246
:1051D000E7300D4A2161A2FB0323A1609B0C0B4920
:1051E000E060013B20462160636005F0B1F910B139
:1051F000012008B010BD204604F096FF08B010BD95
:1052000000100240142B032083DE1B43002C0140BE
:10521000FEE700BFFEE700BFFEE700BFFEE700BFFE
:10522000FEE700BF704700BF014801F017B800BF9C
:1052300068240320014801F011B800BF00240320B6
:10524000014801F003BC00BF30260320014801F0F3
:10525000FDBB00BF30260320014805F05DB800BF4C
:10526000142B0320014805F057B800BF6823032022
:10527000014805F051B800BF1C230320014801F08C
:105280006BBE00BFDC250320014802F00FB800BF51
:10529000DC250320014804F05DBE00BFD0240320BC
:1052A000014805F023BA00BF48250320014802F059
:1052B00037BA00BFA81F0320014800F0CFBF00BFCE
:1052C000B8260320014804F05FBB00BF342503204B
:1052D000034AD2F8883043F47003C2F8883070472C
:1052E00000ED00E0254B25491A682548120754BFF8
:1052F000D3F894301B688A6858BFC3F3032302F0C5
:105300000C0248BFC3F30313082A50F823300FD010
:105310000C2A0FD01B49042A08BF0B46174A1A480B
:1053200092681A49C2F30312825CD3400B60704743
:10533000174BF3E7C868CA6800F00301C2F3031211
:10534000022902F1010211D0032913D0B3FBF2F1BB
:105350000A4AD368D268C3F3062301FB03F3C2F3FE
:10536000416201325200B3FBF2F3D7E70549B1FBCA
:10537000F2F1EDE70649B1FBF2F1E9E70010024076
:10538000580C01080024F400A00C0108D8010320E7
:1053900080969800DFF834D0FFF79AFF002103E0F1
:1053A0000B4B5B58435004310A480B4B42189A424E
:1053B000F6D30A4A02E0002342F8043B084B9A4223
:1053C000F9D309F099F8FBF791FAFEE70000042001
:1053D000C80C010800000320380203203802032013
:1053E00098580320FEE70000042010B500F0E6FC0A
:1053F000FFF778FF0020FFF7CDFE10B10124204613
:1054000010BD0446FFF706FC204610BD034A044BBE
:1054100011681B780B441360704700BF602B03209A
:10542000DC010320014B1868704700BF602B03208C
:10543000002330B583B00193002800F09880856D7B
:105440000446002D00F09880226893689D0005D5E1
:10545000936823F0204323F03F0393609368D800C0
:1054600019D45A4B5A481B6891689B09A0FB030347
:1054700021F010419B0921F03F0101335B0041F015
:10548000805191600193019B2BB1019B013B0193E2
:10549000019B002BF9D19368D9006BD40120A36D37
:1054A00043F01003A365E36D0343E365936813F0D2
:1054B000040FA36D57D1DB0655D4A36D23F481737C
:1054C00043F00203A3659368DD0708D4414B9B6852
:1054D00013F0010F404B9B6801D1D9075FD5E568F8
:1054E000636B94F820102B43A568012943EA050358
:1054F000657E43EA453343EA01434BD0A16A21B1BB
:10550000E56A01F4707129430B43D568334929409A
:105510001943D16093681B0716D494F83030257E68
:10552000D1685B0043EA8533E56C21F4804121F0CA
:1055300006012B430B43D36094F83830012B36D04F
:10554000136923F0010313612369012B1AD0136B34
:1055500023F00F031363A36D23F0030343F0010350
:10556000A36503B030BDA36D43F01003A365012014
:1055700003B030BD002099E7FFF76EFBE56584F8C6
:10558000545061E7116BE36921F00F01013B0B43BC
:105590001363E0E7616A013943EA4143AEE710492A
:1055A00065688B6823F47C132B438B6097E7116944
:1055B000E36B256C6FF38A012B430B43616C0B4348
:1055C000A16C0B4343F001031361BDE7D801032035
:1055D000632D3E05008002420081024207C0F0FFB9
:1055E00000830242704700BF704700BF08B5806A61
:1055F000FFF7FAFF08BD00BF704700BF836A10B510
:105600009A6D12F0500F9A6D1DD1196842F4007214
:105610009A650A6812F0080FCA681BD012F4406F2E
:105620000DD1CA6894040AD49A6D22F480729A65E6
:105630009A6DD10403D49A6D42F001029A6518461E
:10564000FFF7D0FF10BDD2060AD4BDE810401B6D95
:10565000DB6B18479007E7D51846FFF7C3FFF1E764
:105660001846FFF7C9FF10BD806A08B5836D43F087
:1056700040038365C36D43F00403C365FFF7BCFFBC
:1056800008BD00BF0022F0B583B0019290F854200D
:10569000012A00F0F480034601201A6883F85400C0
:1056A0009068400709D501209A6D42F020029A6562
:1056B000002283F8542003B0F0BD1F24486802F193
:1056C000300500F01F0C4FEA901E08680EF00C0E1B
:1056D000C0F3846000FA0CF004FA0CFC55F80E409C
:1056E00024EA0C0C40EA0C0045F80E00906810F01B
:1056F000040F906835D1070733D4072408688D68F4
:10570000C0F30456B440C00DB5F1004F6FEA040475
:1057100000F0040000F0008102F11407B5403E588B
:1057200034402C433C50506920F000405061D1E996
:105730000464042ED568086800F0BB80C5F3C10579
:105740006D0002F1600757F826C0AC40BA4D00F07A
:10575000F8400CEA050505432C4344F0004447F8A3
:1057600026409068C60738D4CE680C68B348D2F893
:10577000B05006F01807F840C4F31207204025EA9D
:1057800007052843C2F8B000AD48864227D0AD498E
:105790000C4222D0AC48AD4986688D68ED0771D4C3
:1057A000AB4DAD68EF073FF57EAFAA4D06F0E07751
:1057B000AC4200F06981A84DAC4200F08981A74D50
:1057C000AC420AD1740208D48A4206D1826822F01F
:1057D000E0723A4342F480028260002068E7002FC2
:1057E00053D094FAA4F0002800F0A080B0FA80F022
:1057F000013000F01F00092840F2988094FAA4F0CC
:10580000002800F08181B0FA80F00130800600F0BD
:10581000F84094FAA4F5002D00F06A810126B5FA4B
:1058200085F5354405F01F0506FA05F5284394FA79
:10583000A4F4002C00F05A81B4FA84F56FF01D0630
:105840000324013505F01F0514FB0564240544F00D
:10585000007407272043C50D8E6805F0040502F18A
:10586000140C5CF80540C0F30450864007FA00F0C1
:1058700024EA000030434CF805000C6887E702205A
:1058800003B0F0BD724A92680DE70120A40E013406
:1058900004F01F06A40604F0F845B040092E06EBFC
:1058A000460440EA050066D91E3C240544F0007415
:1058B000CFE7146E146EC0F31205C4F38464002D98
:1058C0005BD1C0F38466B44200F08F80546E556E95
:1058D00002F16004C5F3846502F1640CB54200F086
:1058E000BF80A568A56804F10807C5F38465C0F307
:1058F0008466AE4200F08D80E568E56804F10C0630
:10590000C5F38464C0F38460A0427FF42AAF30689A
:1059100020F00040306024E702F1140635582C4096
:105920003450506940F00040506100E794FAA4F010
:10593000002800F0F180B0FA80F00130800600F01D
:10594000F84094FAA4F5002D00F0E4800126B5FAA1
:1059500085F5354405F01F0506FA05F5284394FA48
:10596000A4F4002C00F0D380B4FA84F4013404F0E1
:105970001F0404EB440424056BE790FAA0F51DB165
:10598000B5FA85F5AC4230D0546E556E02F1600424
:10599000C5F3846502F1640C90FAA0F604F10807DF
:1059A000BE46002E00F0AB80B6FA86F6AE4259D065
:1059B0003D683D68C5F3846590FAA0FC04F10C06CF
:1059C000B646BCF1000F00F09580BCFA8CFCAC45EB
:1059D00021D034683468C4F3846490FAA0F00028BD
:1059E0003FF4BFAEB0FA80F08EE71446106E02F1BD
:1059F000640C20F0004044F8600F506E0868556E4B
:105A0000C0F31206C5F38465002EC5D1C0F38466C9
:105A100064E704F10C0E3868764620F000403860E8
:105A2000E0680868E468C0F31205C4F38464002DDC
:105A30003FF468AFD1E700BF00F0FF03FFFF0700AE
:105A400000007F4000000880008302420080024284
:105A500000810242000052C7000084CB0100008098
:105A600004F1080EDCF80000774620F00040CCF886
:105A70000000A0680868A568C0F31206C5F3846535
:105A8000002E3FF434AF97E736023FF5A6AE8A42C8
:105A90007FF4A3AE8268224922F0E0723A4342F4D6
:105AA000000282600A681F499209A1FB0212920952
:105AB000013202EB420292000192019A002A3FF465
:105AC0008CAE019A013A0192019A002AF9D184E63A
:105AD000F5013FF582AE8A427FF47FAE826822F004
